{
  "_format": "hh-sol-artifact-1",
  "contractName": "HackathonRebaked",
  "sourceName": "contracts/HackathonRebaked.sol",
  "abi": [
    {
      "inputs": [
        {
          "internalType": "address",
          "name": "admin",
          "type": "address"
        }
      ],
      "stateMutability": "nonpayable",
      "type": "constructor"
    },
    {
      "anonymous": false,
      "inputs": [
        {
          "indexed": false,
          "internalType": "string",
          "name": "hackathonId",
          "type": "string"
        }
      ],
      "name": "Close",
      "type": "event"
    },
    {
      "anonymous": false,
      "inputs": [
        {
          "indexed": false,
          "internalType": "string",
          "name": "hackathonId",
          "type": "string"
        },
        {
          "indexed": false,
          "internalType": "string",
          "name": "url",
          "type": "string"
        },
        {
          "indexed": false,
          "internalType": "address",
          "name": "owner",
          "type": "address"
        },
        {
          "indexed": false,
          "internalType": "string[]",
          "name": "arrId",
          "type": "string[]"
        },
        {
          "indexed": false,
          "internalType": "address[]",
          "name": "arrToken",
          "type": "address[]"
        },
        {
          "indexed": false,
          "internalType": "uint256[]",
          "name": "arrValue",
          "type": "uint256[]"
        },
        {
          "indexed": false,
          "internalType": "uint16[]",
          "name": "arrNumberOfReceiver",
          "type": "uint16[]"
        }
      ],
      "name": "Created",
      "type": "event"
    },
    {
      "anonymous": false,
      "inputs": [
        {
          "indexed": false,
          "internalType": "string",
          "name": "hackathonId",
          "type": "string"
        },
        {
          "indexed": false,
          "internalType": "string[]",
          "name": "arrId",
          "type": "string[]"
        },
        {
          "indexed": false,
          "internalType": "address[]",
          "name": "addressWinner",
          "type": "address[]"
        },
        {
          "indexed": false,
          "internalType": "string[]",
          "name": "submitionId",
          "type": "string[]"
        }
      ],
      "name": "DistributedPrizes",
      "type": "event"
    },
    {
      "anonymous": false,
      "inputs": [
        {
          "indexed": false,
          "internalType": "string",
          "name": "hackathonId",
          "type": "string"
        },
        {
          "indexed": false,
          "internalType": "address",
          "name": "userAddress",
          "type": "address"
        }
      ],
      "name": "Joined",
      "type": "event"
    },
    {
      "anonymous": false,
      "inputs": [
        {
          "indexed": true,
          "internalType": "address",
          "name": "previousOwner",
          "type": "address"
        },
        {
          "indexed": true,
          "internalType": "address",
          "name": "newOwner",
          "type": "address"
        }
      ],
      "name": "OwnershipTransferred",
      "type": "event"
    },
    {
      "anonymous": false,
      "inputs": [
        {
          "indexed": false,
          "internalType": "address",
          "name": "newReceiver",
          "type": "address"
        }
      ],
      "name": "SetAdminReceiver",
      "type": "event"
    },
    {
      "anonymous": false,
      "inputs": [
        {
          "indexed": true,
          "internalType": "uint256",
          "name": "newFee",
          "type": "uint256"
        }
      ],
      "name": "SetFee",
      "type": "event"
    },
    {
      "anonymous": false,
      "inputs": [
        {
          "indexed": true,
          "internalType": "uint256",
          "name": "newTime",
          "type": "uint256"
        }
      ],
      "name": "SetTime",
      "type": "event"
    },
    {
      "anonymous": false,
      "inputs": [
        {
          "indexed": false,
          "internalType": "string",
          "name": "hackathonId",
          "type": "string"
        }
      ],
      "name": "WithdrawUnclaimed",
      "type": "event"
    },
    {
      "inputs": [],
      "name": "adminReceiver",
      "outputs": [
        {
          "internalType": "address payable",
          "name": "",
          "type": "address"
        }
      ],
      "stateMutability": "view",
      "type": "function"
    },
    {
      "inputs": [
        {
          "internalType": "string",
          "name": "_hackathonId",
          "type": "string"
        }
      ],
      "name": "close",
      "outputs": [],
      "stateMutability": "nonpayable",
      "type": "function"
    },
    {
      "inputs": [
        {
          "internalType": "string",
          "name": "_hackathonId",
          "type": "string"
        },
        {
          "internalType": "string",
          "name": "_url",
          "type": "string"
        },
        {
          "internalType": "string[]",
          "name": "_arrId",
          "type": "string[]"
        },
        {
          "internalType": "address[]",
          "name": "_arrToken",
          "type": "address[]"
        },
        {
          "internalType": "uint256[]",
          "name": "_arrValue",
          "type": "uint256[]"
        },
        {
          "internalType": "uint16[]",
          "name": "_arrNumberOfReceiver",
          "type": "uint16[]"
        }
      ],
      "name": "createHackathon",
      "outputs": [],
      "stateMutability": "payable",
      "type": "function"
    },
    {
      "inputs": [],
      "name": "fee",
      "outputs": [
        {
          "internalType": "uint256",
          "name": "",
          "type": "uint256"
        }
      ],
      "stateMutability": "view",
      "type": "function"
    },
    {
      "inputs": [
        {
          "internalType": "string",
          "name": "_hackathonId",
          "type": "string"
        },
        {
          "internalType": "address",
          "name": "_user",
          "type": "address"
        }
      ],
      "name": "getAlreadyJoined",
      "outputs": [
        {
          "internalType": "bool",
          "name": "",
          "type": "bool"
        }
      ],
      "stateMutability": "view",
      "type": "function"
    },
    {
      "inputs": [
        {
          "internalType": "string",
          "name": "_hackathonId",
          "type": "string"
        }
      ],
      "name": "getHackathonInfo",
      "outputs": [
        {
          "components": [
            {
              "internalType": "string",
              "name": "id",
              "type": "string"
            },
            {
              "internalType": "string",
              "name": "url",
              "type": "string"
            },
            {
              "internalType": "uint256",
              "name": "totalPrizeCountLeft",
              "type": "uint256"
            },
            {
              "internalType": "uint256",
              "name": "closedAt",
              "type": "uint256"
            },
            {
              "internalType": "address payable",
              "name": "owner",
              "type": "address"
            },
            {
              "internalType": "bool",
              "name": "isWithdraw",
              "type": "bool"
            }
          ],
          "internalType": "struct IHackathon.Hackathon",
          "name": "",
          "type": "tuple"
        }
      ],
      "stateMutability": "view",
      "type": "function"
    },
    {
      "inputs": [
        {
          "internalType": "string",
          "name": "_hackathonId",
          "type": "string"
        },
        {
          "internalType": "address",
          "name": "user",
          "type": "address"
        }
      ],
      "name": "getIsJoined",
      "outputs": [
        {
          "internalType": "bool",
          "name": "",
          "type": "bool"
        }
      ],
      "stateMutability": "view",
      "type": "function"
    },
    {
      "inputs": [
        {
          "internalType": "string",
          "name": "_hackathonId",
          "type": "string"
        },
        {
          "internalType": "string",
          "name": "_prizeId",
          "type": "string"
        }
      ],
      "name": "getPrizeInfo",
      "outputs": [
        {
          "components": [
            {
              "internalType": "address",
              "name": "token",
              "type": "address"
            },
            {
              "internalType": "uint256",
              "name": "value",
              "type": "uint256"
            },
            {
              "internalType": "uint16",
              "name": "numberOfReceiver",
              "type": "uint16"
            }
          ],
          "internalType": "struct IHackathon.Prize",
          "name": "",
          "type": "tuple"
        }
      ],
      "stateMutability": "view",
      "type": "function"
    },
    {
      "inputs": [
        {
          "internalType": "string",
          "name": "_hackathonId",
          "type": "string"
        },
        {
          "internalType": "string",
          "name": "pId",
          "type": "string"
        }
      ],
      "name": "getResultCount",
      "outputs": [
        {
          "internalType": "uint256",
          "name": "",
          "type": "uint256"
        }
      ],
      "stateMutability": "view",
      "type": "function"
    },
    {
      "inputs": [
        {
          "internalType": "string",
          "name": "_hackathonId",
          "type": "string"
        },
        {
          "internalType": "address",
          "name": "tokenAddress",
          "type": "address"
        }
      ],
      "name": "getTotalMoneyDeposited",
      "outputs": [
        {
          "internalType": "uint256",
          "name": "",
          "type": "uint256"
        }
      ],
      "stateMutability": "view",
      "type": "function"
    },
    {
      "inputs": [
        {
          "internalType": "string",
          "name": "_hackathonId",
          "type": "string"
        },
        {
          "internalType": "address",
          "name": "tokenAddress",
          "type": "address"
        }
      ],
      "name": "getTotalMoneyDistributed",
      "outputs": [
        {
          "internalType": "uint256",
          "name": "",
          "type": "uint256"
        }
      ],
      "stateMutability": "view",
      "type": "function"
    },
    {
      "inputs": [
        {
          "internalType": "string",
          "name": "",
          "type": "string"
        }
      ],
      "name": "hackathon",
      "outputs": [
        {
          "internalType": "string",
          "name": "id",
          "type": "string"
        },
        {
          "internalType": "string",
          "name": "url",
          "type": "string"
        },
        {
          "internalType": "uint256",
          "name": "totalPrizeCountLeft",
          "type": "uint256"
        },
        {
          "internalType": "uint256",
          "name": "closedAt",
          "type": "uint256"
        },
        {
          "internalType": "address payable",
          "name": "owner",
          "type": "address"
        },
        {
          "internalType": "bool",
          "name": "isWithdraw",
          "type": "bool"
        }
      ],
      "stateMutability": "view",
      "type": "function"
    },
    {
      "inputs": [
        {
          "internalType": "string",
          "name": "_hackathonId",
          "type": "string"
        }
      ],
      "name": "join",
      "outputs": [],
      "stateMutability": "nonpayable",
      "type": "function"
    },
    {
      "inputs": [],
      "name": "owner",
      "outputs": [
        {
          "internalType": "address",
          "name": "",
          "type": "address"
        }
      ],
      "stateMutability": "view",
      "type": "function"
    },
    {
      "inputs": [],
      "name": "renounceOwnership",
      "outputs": [],
      "stateMutability": "nonpayable",
      "type": "function"
    },
    {
      "inputs": [
        {
          "internalType": "string",
          "name": "_hackathonId",
          "type": "string"
        },
        {
          "internalType": "string[]",
          "name": "_arrId",
          "type": "string[]"
        },
        {
          "internalType": "address[]",
          "name": "_addressWinner",
          "type": "address[]"
        },
        {
          "internalType": "string[]",
          "name": "_submitionId",
          "type": "string[]"
        }
      ],
      "name": "sendPrizes",
      "outputs": [],
      "stateMutability": "nonpayable",
      "type": "function"
    },
    {
      "inputs": [
        {
          "internalType": "address",
          "name": "newReceiver",
          "type": "address"
        }
      ],
      "name": "setAdminReceiver",
      "outputs": [],
      "stateMutability": "nonpayable",
      "type": "function"
    },
    {
      "inputs": [
        {
          "internalType": "uint256",
          "name": "_newFee",
          "type": "uint256"
        }
      ],
      "name": "setFee",
      "outputs": [],
      "stateMutability": "nonpayable",
      "type": "function"
    },
    {
      "inputs": [
        {
          "internalType": "uint256",
          "name": "_newTime",
          "type": "uint256"
        }
      ],
      "name": "setTime",
      "outputs": [],
      "stateMutability": "nonpayable",
      "type": "function"
    },
    {
      "inputs": [],
      "name": "timeForWithdrawUnclaimed",
      "outputs": [
        {
          "internalType": "uint256",
          "name": "",
          "type": "uint256"
        }
      ],
      "stateMutability": "view",
      "type": "function"
    },
    {
      "inputs": [
        {
          "internalType": "address",
          "name": "newOwner",
          "type": "address"
        }
      ],
      "name": "transferOwnership",
      "outputs": [],
      "stateMutability": "nonpayable",
      "type": "function"
    },
    {
      "inputs": [
        {
          "internalType": "string",
          "name": "_hackathonId",
          "type": "string"
        }
      ],
      "name": "withdrawUnclaimed",
      "outputs": [],
      "stateMutability": "nonpayable",
      "type": "function"
    }
  ],
  "bytecode": "0x608060405260056002556203f4806003553480156200001d57600080fd5b5060405162003304380380620033048339810160408190526200004091620001a1565b6200004b336200007c565b60018055600480546001600160a01b0319166001600160a01b0383161790556200007581620000cc565b50620001d1565b600080546001600160a01b038381166001600160a01b0319831681178455604051919092169283917f8be0079c531659141344cd1fd0a4f28419497f9722a3daafe3b4186f6b6457e09190a35050565b6000546001600160a01b031633146200012c5760405162461bcd60e51b815260206004820181905260248201527f4f776e61626c653a2063616c6c6572206973206e6f7420746865206f776e657260448201526064015b60405180910390fd5b6001600160a01b038116620001935760405162461bcd60e51b815260206004820152602660248201527f4f776e61626c653a206e6577206f776e657220697320746865207a65726f206160448201526564647265737360d01b606482015260840162000123565b6200019e816200007c565b50565b600060208284031215620001b3578081fd5b81516001600160a01b0381168114620001ca578182fd5b9392505050565b61312380620001e16000396000f3fe6080604052600436106101355760003560e01c80639666ee5c116100ab578063db1d256c1161006f578063db1d256c1461039d578063dbdb497a1461018f578063ddca3f43146103ca578063e980ffff146103e0578063e9d6bf3014610400578063f2fde38b1461041357600080fd5b80639666ee5c146103075780639d869eac14610327578063a9e4241f14610347578063d18321211461035d578063d32a1b751461037d57600080fd5b80636a786b07116100fd5780636a786b071461022e5780636ddcafea1461024e578063715018a6146102805780638b7c5f4c146102955780638c64b3d8146102b55780638da5cb5b146102d557600080fd5b80630a18f7ee1461013a5780633beb26c41461016d5780634deb3ec41461018f5780635e583bc1146101bf57806369fe0e2d1461020e575b600080fd5b34801561014657600080fd5b5061015a610155366004612956565b610433565b6040519081526020015b60405180910390f35b34801561017957600080fd5b5061018d610188366004612b9d565b610482565b005b34801561019b57600080fd5b506101af6101aa366004612956565b610534565b6040519015158152602001610164565b3480156101cb57600080fd5b506101df6101da366004612a4e565b61057d565b6040805182516001600160a01b03168152602080840151908201529181015161ffff1690820152606001610164565b34801561021a57600080fd5b5061018d610229366004612b9d565b61060b565b34801561023a57600080fd5b5061018d61024936600461291b565b6106fe565b34801561025a57600080fd5b5061026e61026936600461291b565b610822565b60405161016496959493929190612e1e565b34801561028c57600080fd5b5061018d610982565b3480156102a157600080fd5b5061018d6102b03660046129a6565b6109b8565b3480156102c157600080fd5b5061018d6102d03660046128c3565b61105d565b3480156102e157600080fd5b506000546001600160a01b03165b6040516001600160a01b039091168152602001610164565b34801561031357600080fd5b506004546102ef906001600160a01b031681565b34801561033357600080fd5b5061018d61034236600461291b565b611124565b34801561035357600080fd5b5061015a60035481565b34801561036957600080fd5b5061015a610378366004612a4e565b61125c565b34801561038957600080fd5b5061015a610398366004612956565b6112a4565b3480156103a957600080fd5b506103bd6103b836600461291b565b6112f3565b6040516101649190612ecd565b3480156103d657600080fd5b5061015a60025481565b3480156103ec57600080fd5b5061018d6103fb36600461291b565b6114c4565b61018d61040e366004612aaf565b61194f565b34801561041f57600080fd5b5061018d61042e3660046128c3565b61211e565b60006005836040516104459190612cc3565b90815260200160405180910390206002016000836001600160a01b03166001600160a01b0316815260200190815260200160002054905092915050565b6000546001600160a01b031633146104b55760405162461bcd60e51b81526004016104ac90612e98565b60405180910390fd5b8060035414156105025760405162461bcd60e51b81526020600482015260186024820152774d757374206368616e676520746f206e65772076616c756560401b60448201526064016104ac565b600381905560405181907e172ddfc5ae88d08b3de01a5a187667c37a5a53989e8c175055cb6c993792a790600090a250565b60006005836040516105469190612cc3565b90815260408051602092819003830190206001600160a01b0394909416600090815260059094019091529091205460ff1692915050565b604080516060810182526000808252602082018190528183015290516005906105a7908590612cc3565b9081526020016040518091039020600601826040516105c69190612cc3565b90815260408051918290036020908101832060608401835280546001600160a01b031684526001810154918401919091526002015461ffff1690820152905092915050565b6000546001600160a01b031633146106355760405162461bcd60e51b81526004016104ac90612e98565b8060025414156106825760405162461bcd60e51b81526020600482015260186024820152774d757374206368616e676520746f206e65772076616c756560401b60448201526064016104ac565b60648111156106cc5760405162461bcd60e51b815260206004820152601660248201527504d757374206265747765656e203020616e64203130360541b60448201526064016104ac565b600281905560405181907e172ddfc5ae88d08b3de01a5a187667c37a5a53989e8c175055cb6c993792a790600090a250565b8060068160405161070f9190612cc3565b908152604051908190036020019020805461072990613034565b151590506107495760405162461bcd60e51b81526004016104ac90612e74565b6107538233610534565b156107915760405162461bcd60e51b815260206004820152600e60248201526d105b1c9958591e481a9bda5b995960921b60448201526064016104ac565b60016005836040516107a39190612cc3565b908152602001604051809103902060050160006107bd3390565b6001600160a01b031681526020810191909152604001600020805460ff19169115159190911790557fdda435e91b955ad377d525c5434485ffc209826a5d473663fd15f56a7774be0f8233604051610816929190612cf2565b60405180910390a15050565b805160208183018101805160068252928201919093012091528054819061084890613034565b80601f016020809104026020016040519081016040528092919081815260200182805461087490613034565b80156108c15780601f10610896576101008083540402835291602001916108c1565b820191906000526020600020905b8154815290600101906020018083116108a457829003601f168201915b5050505050908060010180546108d690613034565b80601f016020809104026020016040519081016040528092919081815260200182805461090290613034565b801561094f5780601f106109245761010080835404028352916020019161094f565b820191906000526020600020905b81548152906001019060200180831161093257829003601f168201915b5050505060028301546003840154600490940154929390929091506001600160a01b03811690600160a01b900460ff1686565b6000546001600160a01b031633146109ac5760405162461bcd60e51b81526004016104ac90612e98565b6109b660006121b9565b565b60026001541415610a0b5760405162461bcd60e51b815260206004820152601f60248201527f5265656e7472616e637947756172643a207265656e7472616e742063616c6c0060448201526064016104ac565b60026001556040518490600690610a23908390612cc3565b9081526040519081900360200190208054610a3d90613034565b15159050610a5d5760405162461bcd60e51b81526004016104ac90612e74565b84336001600160a01b0316600682604051610a789190612cc3565b908152604051908190036020019020600401546001600160a01b031614610ace5760405162461bcd60e51b815260206004820152600a60248201526927b7363c9037bbb732b960b11b60448201526064016104ac565b83518551148015610ae0575082518551145b610b1d5760405162461bcd60e51b815260206004820152600e60248201526d092dcecc2d8d2c840d8cadccee8d60931b60448201526064016104ac565b6000610b28876112f3565b9050806040015186511115610b8b5760405162461bcd60e51b8152602060048201526024808201527f496e76616c6964206e756d626572206f66207072697a657320646973747269626044820152631d5d195960e21b60648201526084016104ac565b606081015115610bd45760405162461bcd60e51b8152602060048201526014602482015273121858dad85d1a1bdb881dd85cc818db1bdcd95960621b60448201526064016104ac565b60408051606081018252600080825260208201819052918101829052905b87518161ffff161015610fd9576000878261ffff1681518110610c2557634e487b7160e01b600052603260045260246000fd5b60200260200101519050610c648a898461ffff1681518110610c5757634e487b7160e01b600052603260045260246000fd5b6020026020010151610534565b610ca15760405162461bcd60e51b815260206004820152600e60248201526d24b73b30b634b2103bb4b73732b960911b60448201526064016104ac565b610cd68a8a8461ffff1681518110610cc957634e487b7160e01b600052603260045260246000fd5b602002602001015161057d565b92506000836020015111610d2c5760405162461bcd60e51b815260206004820152601960248201527f53686f756c642073656e642063727970746f207072697a65730000000000000060448201526064016104ac565b826040015161ffff1660058b604051610d459190612cc3565b90815260200160405180910390206004018a8461ffff1681518110610d7a57634e487b7160e01b600052603260045260246000fd5b6020026020010151604051610d8f9190612cc3565b90815260200160405180910390205410610deb5760405162461bcd60e51b815260206004820152601960248201527f496e76616c6964206e756d62657220666f72207072697a65730000000000000060448201526064016104ac565b60058a604051610dfb9190612cc3565b9081526020016040518091039020600401898361ffff1681518110610e3057634e487b7160e01b600052603260045260246000fd5b6020026020010151604051610e459190612cc3565b9081526040519081900360200190208054906000610e6283613091565b9190505550600060646002548560200151610e7d9190612fd2565b610e879190612fb2565b84519091506001600160a01b0316610f1f576004546040516001600160a01b039091169082156108fc029083906000818181858888f19350505050158015610ed3573d6000803e3d6000fd5b50816001600160a01b03166108fc828660200151610ef19190612ff1565b6040518115909202916000818181858888f19350505050158015610f19573d6000803e3d6000fd5b50610f61565b6004548451610f3b916001600160a01b03918216911683612209565b610f6182828660200151610f4f9190612ff1565b86516001600160a01b03169190612209565b836020015160058c604051610f769190612cc3565b9081526020016040518091039020600301600086600001516001600160a01b03166001600160a01b031681526020019081526020016000206000828254610fbd9190612f9a565b9250508190555050508080610fd19061306f565b915050610bf2565b508651600689604051610fec9190612cc3565b9081526020016040518091039020600201600082825461100c9190612ff1565b90915550506040517fe0ad11552da81fe23201bd02e63006a1496ed0e17ea370a852d5d6409a31b0c590611047908a908a908a908a90612d1c565b60405180910390a1505060018055505050505050565b6000546001600160a01b031633146110875760405162461bcd60e51b81526004016104ac90612e98565b6001600160a01b0381166110d05760405162461bcd60e51b815260206004820152601060248201526f24b73b30b634b2103932b1b2b4bb32b960811b60448201526064016104ac565b600480546001600160a01b0319166001600160a01b0383169081179091556040519081527f128152f657dc3dab28282f0429d779dd6095c2e517ffb5131a1ffaa24c8ec47b9060200160405180910390a150565b6000546001600160a01b0316331461114e5760405162461bcd60e51b81526004016104ac90612e98565b8060068160405161115f9190612cc3565b908152604051908190036020019020805461117990613034565b151590506111995760405162461bcd60e51b81526004016104ac90612e74565b60006111a4836112f3565b905060008160400151116111fa5760405162461bcd60e51b815260206004820152601960248201527f416c6c207072697a65207761732064697374726962757465640000000000000060448201526064016104ac565b4260068460405161120b9190612cc3565b9081526020016040518091039020600301819055507f5c0c007c09a3b98ce2bd440aa4bc8a5a68df73b2c589e56aa65c8a9d46cb0a908360405161124f9190612cdf565b60405180910390a1505050565b600060058360405161126e9190612cc3565b90815260200160405180910390206004018260405161128d9190612cc3565b908152602001604051809103902054905092915050565b60006005836040516112b69190612cc3565b90815260200160405180910390206003016000836001600160a01b03166001600160a01b0316815260200190815260200160002054905092915050565b6113376040518060c001604052806060815260200160608152602001600081526020016000815260200160006001600160a01b031681526020016000151581525090565b6006826040516113479190612cc3565b90815260200160405180910390206040518060c001604052908160008201805461137090613034565b80601f016020809104026020016040519081016040528092919081815260200182805461139c90613034565b80156113e95780601f106113be576101008083540402835291602001916113e9565b820191906000526020600020905b8154815290600101906020018083116113cc57829003601f168201915b5050505050815260200160018201805461140290613034565b80601f016020809104026020016040519081016040528092919081815260200182805461142e90613034565b801561147b5780601f106114505761010080835404028352916020019161147b565b820191906000526020600020905b81548152906001019060200180831161145e57829003601f168201915b505050918352505060028201546020820152600382015460408201526004909101546001600160a01b0381166060830152600160a01b900460ff16151560809091015292915050565b806006816040516114d59190612cc3565b90815260405190819003602001902080546114ef90613034565b1515905061150f5760405162461bcd60e51b81526004016104ac90612e74565b600061151a836112f3565b60808101519091506001600160a01b031633146115795760405162461bcd60e51b815260206004820152601f60248201527f4d757374206265206f776e6572206f662074686973206861636b6174686f6e0060448201526064016104ac565b8060a00151156115be5760405162461bcd60e51b815260206004820152601060248201526f416c726561647920776974686472617760801b60448201526064016104ac565b60008160600151116116125760405162461bcd60e51b815260206004820152601860248201527f4861636b6174686f6e20776173206e6f7420636c6f736564000000000000000060448201526064016104ac565b60035481606001516116249190612f9a565b42101561165f5760405162461bcd60e51b8152602060048201526009602482015268135d5cdd081dd85a5d60ba1b60448201526064016104ac565b60005b6005846040516116729190612cc3565b90815260405190819003602001812063c6756c7360e01b825273__$8ceb53e3d88e8dc3373378a4fe1d20dcbd$__9163c6756c73916116b79160040190815260200190565b60206040518083038186803b1580156116cf57600080fd5b505af41580156116e3573d6000803e3d6000fd5b505050506040513d601f19601f820116820180604052508101906117079190612bb5565b8110156118e25760006005856040516117209190612cc3565b90815260405190819003602001812063eb18de5160e01b825273__$8ceb53e3d88e8dc3373378a4fe1d20dcbd$__9163eb18de519161176c918690600401918252602082015260400190565b60206040518083038186803b15801561178457600080fd5b505af4158015611798573d6000803e3d6000fd5b505050506040513d601f19601f820116820180604052508101906117bc91906128df565b905060006005866040516117d09190612cc3565b90815260200160405180910390206003016000836001600160a01b03166001600160a01b03168152602001908152602001600020546005876040516118159190612cc3565b90815260200160405180910390206002016000846001600160a01b03166001600160a01b03168152602001908152602001600020546118549190612ff1565b9050806118625750506118d0565b6001600160a01b0382166118b35783608001516001600160a01b03166108fc829081150290604051600060405180830381858888f193505050501580156118ad573d6000803e3d6000fd5b506118cd565b60808401516118cd906001600160a01b0384169083612209565b50505b806118da81613091565b915050611662565b5060016006846040516118f59190612cc3565b9081526040519081900360200181206004018054921515600160a01b0260ff60a01b19909316929092179091557f0a619144286042538db0bc5ae7227be7654d1281319b0bce5ae9aacfecae02ae9061124f908590612cdf565b600260015414156119a25760405162461bcd60e51b815260206004820152601f60248201527f5265656e7472616e637947756172643a207265656e7472616e742063616c6c0060448201526064016104ac565b6002600155835183518351835182841480156119bd57508184145b80156119c857508084145b611a055760405162461bcd60e51b815260206004820152600e60248201526d092dcecc2d8d2c840d8cadccee8d60931b60448201526064016104ac565b60068a604051611a159190612cc3565b9081526040519081900360200190208054611a2f90613034565b159050611a6f5760405162461bcd60e51b815260206004820152600e60248201526d416c72656164792065786973747360901b60448201526064016104ac565b60008060005b8a51811015611f4c576000888281518110611aa057634e487b7160e01b600052603260045260246000fd5b602002602001015161ffff1611611aee5760405162461bcd60e51b815260206004820152601260248201527126bab9ba103430bb32903932b1b2b4bb32b960711b60448201526064016104ac565b6000611b148e8d8481518110610cc957634e487b7160e01b600052603260045260246000fd5b90508060200151600014611b5f5760405162461bcd60e51b8152602060048201526012602482015271125b9d985b1a5908141c9a5e99481b1a5cdd60721b60448201526064016104ac565b60006001600160a01b03168b8381518110611b8a57634e487b7160e01b600052603260045260246000fd5b60200260200101516001600160a01b031614611d2757611c4433308b8581518110611bc557634e487b7160e01b600052603260045260246000fd5b602002602001015161ffff168d8681518110611bf157634e487b7160e01b600052603260045260246000fd5b6020026020010151611c039190612fd2565b8e8681518110611c2357634e487b7160e01b600052603260045260246000fd5b60200260200101516001600160a01b0316612271909392919063ffffffff16565b888281518110611c6457634e487b7160e01b600052603260045260246000fd5b602002602001015161ffff168a8381518110611c9057634e487b7160e01b600052603260045260246000fd5b6020026020010151611ca29190612fd2565b60058f604051611cb29190612cc3565b908152602001604051809103902060020160008d8581518110611ce557634e487b7160e01b600052603260045260246000fd5b60200260200101516001600160a01b03166001600160a01b031681526020019081526020016000206000828254611d1c9190612f9a565b90915550611d929050565b888281518110611d4757634e487b7160e01b600052603260045260246000fd5b602002602001015161ffff168a8381518110611d7357634e487b7160e01b600052603260045260246000fd5b6020026020010151611d859190612fd2565b611d8f9085612f9a565b93505b611e3b8e8d8481518110611db657634e487b7160e01b600052603260045260246000fd5b60200260200101518d8581518110611dde57634e487b7160e01b600052603260045260246000fd5b60200260200101518d8681518110611e0657634e487b7160e01b600052603260045260246000fd5b60200260200101518d8781518110611e2e57634e487b7160e01b600052603260045260246000fd5b60200260200101516122af565b888281518110611e5b57634e487b7160e01b600052603260045260246000fd5b602002602001015161ffff1683611e729190612f9a565b925060058e604051611e849190612cc3565b908152602001604051809103902060000173__$8ceb53e3d88e8dc3373378a4fe1d20dcbd$__630c9a87e290918d8581518110611ed157634e487b7160e01b600052603260045260246000fd5b60200260200101516040518363ffffffff1660e01b8152600401611f089291909182526001600160a01b0316602082015260400190565b60006040518083038186803b158015611f2057600080fd5b505af4158015611f34573d6000803e3d6000fd5b50505050508080611f4490613091565b915050611a75565b50348214611f915760405162461bcd60e51b8152602060048201526012602482015271125b9d985b1a59081155120814995dd85c9960721b60448201526064016104ac565b3415611ff1573460058d604051611fa89190612cc3565b90815260200160405180910390206002016000806001600160a01b03166001600160a01b031681526020019081526020016000206000828254611feb9190612f9a565b90915550505b8060068d6040516120029190612cc3565b9081526020016040518091039020600201819055508b60068d6040516120289190612cc3565b9081526020016040518091039020600001908051906020019061204c9291906125fe565b503360068d60405161205e9190612cc3565b908152602001604051809103902060040160006101000a8154816001600160a01b0302191690836001600160a01b031602179055508a60068d6040516120a49190612cc3565b908152602001604051809103902060010190805190602001906120c89291906125fe565b507fe38acf76096891a4172884c1fcc11a2e9a62c5b410d4c3c26bd5f90eadd79f958c8c338d8d8d8d6040516121049796959493929190612d69565b60405180910390a150506001805550505050505050505050565b6000546001600160a01b031633146121485760405162461bcd60e51b81526004016104ac90612e98565b6001600160a01b0381166121ad5760405162461bcd60e51b815260206004820152602660248201527f4f776e61626c653a206e6577206f776e657220697320746865207a65726f206160448201526564647265737360d01b60648201526084016104ac565b6121b6816121b9565b50565b600080546001600160a01b038381166001600160a01b0319831681178455604051919092169283917f8be0079c531659141344cd1fd0a4f28419497f9722a3daafe3b4186f6b6457e09190a35050565b6040516001600160a01b03831660248201526044810182905261226c90849063a9059cbb60e01b906064015b60408051601f198184030181529190526020810180516001600160e01b03166001600160e01b0319909316929092179091526123b2565b505050565b6040516001600160a01b03808516602483015283166044820152606481018290526122a99085906323b872dd60e01b90608401612235565b50505050565b826005866040516122c09190612cc3565b9081526020016040518091039020600601856040516122df9190612cc3565b90815260405190819003602001812080546001600160a01b03939093166001600160a01b031990931692909217909155829060059061231f908890612cc3565b90815260200160405180910390206006018560405161233e9190612cc3565b908152602001604051809103902060010181905550806005866040516123649190612cc3565b9081526020016040518091039020600601856040516123839190612cc3565b908152604051908190036020019020600201805461ffff9290921661ffff199092169190911790555050505050565b6000612407826040518060400160405280602081526020017f5361666545524332303a206c6f772d6c6576656c2063616c6c206661696c6564815250856001600160a01b03166124849092919063ffffffff16565b80519091501561226c578080602001905181019061242591906128fb565b61226c5760405162461bcd60e51b815260206004820152602a60248201527f5361666545524332303a204552433230206f7065726174696f6e20646964206e6044820152691bdd081cdd58d8d9595960b21b60648201526084016104ac565b6060612493848460008561249d565b90505b9392505050565b6060824710156124fe5760405162461bcd60e51b815260206004820152602660248201527f416464726573733a20696e73756666696369656e742062616c616e636520666f6044820152651c8818d85b1b60d21b60648201526084016104ac565b843b61254c5760405162461bcd60e51b815260206004820152601d60248201527f416464726573733a2063616c6c20746f206e6f6e2d636f6e747261637400000060448201526064016104ac565b600080866001600160a01b031685876040516125689190612cc3565b60006040518083038185875af1925050503d80600081146125a5576040519150601f19603f3d011682016040523d82523d6000602084013e6125aa565b606091505b50915091506125ba8282866125c5565b979650505050505050565b606083156125d4575081612496565b8251156125e45782518084602001fd5b8160405162461bcd60e51b81526004016104ac9190612cdf565b82805461260a90613034565b90600052602060002090601f01602090048101928261262c5760008555612672565b82601f1061264557805160ff1916838001178555612672565b82800160010185558215612672579182015b82811115612672578251825591602001919060010190612657565b5061267e929150612682565b5090565b5b8082111561267e5760008155600101612683565b600082601f8301126126a7578081fd5b813560206126bc6126b783612f76565b612f45565b80838252828201915082860187848660051b89010111156126db578586fd5b855b858110156127025781356126f0816130d8565b845292840192908401906001016126dd565b5090979650505050505050565b600082601f83011261271f578081fd5b8135602061272f6126b783612f76565b80838252828201915082860187848660051b890101111561274e578586fd5b855b8581101561270257813567ffffffffffffffff81111561276e578788fd5b61277c8a87838c0101612858565b8552509284019290840190600101612750565b600082601f83011261279f578081fd5b813560206127af6126b783612f76565b80838252828201915082860187848660051b89010111156127ce578586fd5b855b8581101561270257813561ffff811681146127e9578788fd5b845292840192908401906001016127d0565b600082601f83011261280b578081fd5b8135602061281b6126b783612f76565b80838252828201915082860187848660051b890101111561283a578586fd5b855b858110156127025781358452928401929084019060010161283c565b600082601f830112612868578081fd5b813567ffffffffffffffff811115612882576128826130c2565b612895601f8201601f1916602001612f45565b8181528460208386010111156128a9578283fd5b816020850160208301379081016020019190915292915050565b6000602082840312156128d4578081fd5b8135612496816130d8565b6000602082840312156128f0578081fd5b8151612496816130d8565b60006020828403121561290c578081fd5b81518015158114612496578182fd5b60006020828403121561292c578081fd5b813567ffffffffffffffff811115612942578182fd5b61294e84828501612858565b949350505050565b60008060408385031215612968578081fd5b823567ffffffffffffffff81111561297e578182fd5b61298a85828601612858565b925050602083013561299b816130d8565b809150509250929050565b600080600080608085870312156129bb578182fd5b843567ffffffffffffffff808211156129d2578384fd5b6129de88838901612858565b955060208701359150808211156129f3578384fd5b6129ff8883890161270f565b94506040870135915080821115612a14578384fd5b612a2088838901612697565b93506060870135915080821115612a35578283fd5b50612a428782880161270f565b91505092959194509250565b60008060408385031215612a60578182fd5b823567ffffffffffffffff80821115612a77578384fd5b612a8386838701612858565b93506020850135915080821115612a98578283fd5b50612aa585828601612858565b9150509250929050565b60008060008060008060c08789031215612ac7578384fd5b863567ffffffffffffffff80821115612ade578586fd5b612aea8a838b01612858565b97506020890135915080821115612aff578586fd5b612b0b8a838b01612858565b96506040890135915080821115612b20578586fd5b612b2c8a838b0161270f565b95506060890135915080821115612b41578384fd5b612b4d8a838b01612697565b94506080890135915080821115612b62578384fd5b612b6e8a838b016127fb565b935060a0890135915080821115612b83578283fd5b50612b9089828a0161278f565b9150509295509295509295565b600060208284031215612bae578081fd5b5035919050565b600060208284031215612bc6578081fd5b5051919050565b6000815180845260208085019450808401835b83811015612c055781516001600160a01b031687529582019590820190600101612be0565b509495945050505050565b600081518084526020808501808196508360051b81019150828601855b85811015612c57578284038952612c45848351612c97565b98850198935090840190600101612c2d565b5091979650505050505050565b6000815180845260208085019450808401835b83811015612c0557815161ffff1687529582019590820190600101612c77565b60008151808452612caf816020860160208601613008565b601f01601f19169290920160200192915050565b60008251612cd5818460208701613008565b9190910192915050565b6020815260006124966020830184612c97565b604081526000612d056040830185612c97565b905060018060a01b03831660208301529392505050565b608081526000612d2f6080830187612c97565b8281036020840152612d418187612c10565b90508281036040840152612d558186612bcd565b905082810360608401526125ba8185612c10565b60e081526000612d7c60e083018a612c97565b602083820381850152612d8f828b612c97565b6001600160a01b038a16604086015284810360608601529150612db28289612c10565b91508382036080850152612dc68288612bcd565b84810360a08601528651808252828801935090820190845b81811015612dfa57845183529383019391830191600101612dde565b505084810360c0860152612e0e8187612c64565b9c9b505050505050505050505050565b60c081526000612e3160c0830189612c97565b8281036020840152612e438189612c97565b6040840197909752505060608101939093526001600160a01b03919091166080830152151560a09091015292915050565b6020808252600a90820152694e6f742065786973747360b01b604082015260600190565b6020808252818101527f4f776e61626c653a2063616c6c6572206973206e6f7420746865206f776e6572604082015260600190565b602081526000825160c06020840152612ee960e0840182612c97565b90506020840151601f19848303016040850152612f068282612c97565b915050604084015160608401526060840151608084015260018060a01b0360808501511660a084015260a0840151151560c08401528091505092915050565b604051601f8201601f1916810167ffffffffffffffff81118282101715612f6e57612f6e6130c2565b604052919050565b600067ffffffffffffffff821115612f9057612f906130c2565b5060051b60200190565b60008219821115612fad57612fad6130ac565b500190565b600082612fcd57634e487b7160e01b81526012600452602481fd5b500490565b6000816000190483118215151615612fec57612fec6130ac565b500290565b600082821015613003576130036130ac565b500390565b60005b8381101561302357818101518382015260200161300b565b838111156122a95750506000910152565b600181811c9082168061304857607f821691505b6020821081141561306957634e487b7160e01b600052602260045260246000fd5b50919050565b600061ffff80831681811415613087576130876130ac565b6001019392505050565b60006000198214156130a5576130a56130ac565b5060010190565b634e487b7160e01b600052601160045260246000fd5b634e487b7160e01b600052604160045260246000fd5b6001600160a01b03811681146121b657600080fdfea2646970667358221220590396c4eeaee91973d804226d7b1aefbc285a4d2959037545cfca05f1b4b3ad64736f6c63430008040033",
  "linkReferences": {
    "contracts/AddressSet.sol": {
      "AddressSet": [
        {
          "length": 20,
          "start": 6254
        },
        {
          "length": 20,
          "start": 6428
        },
        {
          "length": 20,
          "start": 8312
        }
      ]
    }
  },
  "deployedLinkReferences": {
    "contracts/AddressSet.sol": {
      "AddressSet": [
        {
          "length": 20,
          "start": 5773
        },
        {
          "length": 20,
          "start": 5947
        },
        {
          "length": 20,
          "start": 7831
        }
      ]
    }
  }
}